{
  "contractName": "DegreeContract",
  "abi": [
    {
      "inputs": [
        {
          "internalType": "address",
          "name": "_studentContractAddress",
          "type": "address"
        }
      ],
      "payable": false,
      "stateMutability": "nonpayable",
      "type": "constructor"
    },
    {
      "anonymous": false,
      "inputs": [
        {
          "indexed": false,
          "internalType": "uint256",
          "name": "degreeId",
          "type": "uint256"
        },
        {
          "indexed": false,
          "internalType": "uint256",
          "name": "matricule",
          "type": "uint256"
        },
        {
          "indexed": false,
          "internalType": "uint256",
          "name": "studentId",
          "type": "uint256"
        },
        {
          "indexed": false,
          "internalType": "string",
          "name": "degreeName",
          "type": "string"
        },
        {
          "indexed": false,
          "internalType": "uint256",
          "name": "completionYear",
          "type": "uint256"
        },
        {
          "indexed": false,
          "internalType": "uint256",
          "name": "averageObtention",
          "type": "uint256"
        },
        {
          "indexed": false,
          "internalType": "enum DegreeContract.DiplomaMention",
          "name": "diplomaMention",
          "type": "uint8"
        }
      ],
      "name": "DegreeAdded",
      "type": "event"
    },
    {
      "constant": true,
      "inputs": [
        {
          "internalType": "uint256",
          "name": "",
          "type": "uint256"
        }
      ],
      "name": "degrees",
      "outputs": [
        {
          "internalType": "uint256",
          "name": "degreeId",
          "type": "uint256"
        },
        {
          "internalType": "uint256",
          "name": "matricule",
          "type": "uint256"
        },
        {
          "internalType": "uint256",
          "name": "studentId",
          "type": "uint256"
        },
        {
          "internalType": "string",
          "name": "degreeName",
          "type": "string"
        },
        {
          "internalType": "uint256",
          "name": "completionYear",
          "type": "uint256"
        },
        {
          "internalType": "uint256",
          "name": "averageObtention",
          "type": "uint256"
        },
        {
          "internalType": "enum DegreeContract.DiplomaMention",
          "name": "diplomaMention",
          "type": "uint8"
        }
      ],
      "payable": false,
      "stateMutability": "view",
      "type": "function"
    },
    {
      "constant": true,
      "inputs": [],
      "name": "degreesCount",
      "outputs": [
        {
          "internalType": "uint256",
          "name": "",
          "type": "uint256"
        }
      ],
      "payable": false,
      "stateMutability": "view",
      "type": "function"
    },
    {
      "constant": true,
      "inputs": [],
      "name": "studentContract",
      "outputs": [
        {
          "internalType": "contract StudentContract",
          "name": "",
          "type": "address"
        }
      ],
      "payable": false,
      "stateMutability": "view",
      "type": "function"
    },
    {
      "constant": false,
      "inputs": [
        {
          "internalType": "uint256",
          "name": "_matricule",
          "type": "uint256"
        },
        {
          "internalType": "uint256",
          "name": "_studentId",
          "type": "uint256"
        },
        {
          "internalType": "string",
          "name": "_degreeName",
          "type": "string"
        },
        {
          "internalType": "uint256",
          "name": "_completionYear",
          "type": "uint256"
        },
        {
          "internalType": "uint256",
          "name": "_averageObtention",
          "type": "uint256"
        },
        {
          "internalType": "uint8",
          "name": "_diplomaMention",
          "type": "uint8"
        }
      ],
      "name": "addDegree",
      "outputs": [],
      "payable": false,
      "stateMutability": "nonpayable",
      "type": "function"
    },
    {
      "constant": true,
      "inputs": [
        {
          "internalType": "uint256",
          "name": "_degreeId",
          "type": "uint256"
        }
      ],
      "name": "getDegree",
      "outputs": [
        {
          "internalType": "uint256",
          "name": "",
          "type": "uint256"
        },
        {
          "internalType": "uint256",
          "name": "",
          "type": "uint256"
        },
        {
          "internalType": "uint256",
          "name": "",
          "type": "uint256"
        },
        {
          "internalType": "string",
          "name": "",
          "type": "string"
        },
        {
          "internalType": "uint256",
          "name": "",
          "type": "uint256"
        },
        {
          "internalType": "uint256",
          "name": "",
          "type": "uint256"
        },
        {
          "internalType": "enum DegreeContract.DiplomaMention",
          "name": "",
          "type": "uint8"
        }
      ],
      "payable": false,
      "stateMutability": "view",
      "type": "function"
    }
  ],
  "bytecode": "0x608060405234801561001057600080fd5b50604051610c53380380610c538339818101604052602081101561003357600080fd5b810190808051906020019092919050505080600260006101000a81548173ffffffffffffffffffffffffffffffffffffffff021916908373ffffffffffffffffffffffffffffffffffffffff16021790555050610bbe806100956000396000f3fe608060405234801561001057600080fd5b50600436106100575760003560e01c806302966f511461005c5780630c571a091461007a5780634d36b276146100c457806381f1c3bc146101b4578063f7928fb314610293575b600080fd5b610064610372565b6040518082815260200191505060405180910390f35b610082610378565b604051808273ffffffffffffffffffffffffffffffffffffffff1673ffffffffffffffffffffffffffffffffffffffff16815260200191505060405180910390f35b6101b2600480360360c08110156100da57600080fd5b8101908080359060200190929190803590602001909291908035906020019064010000000081111561010b57600080fd5b82018360208201111561011d57600080fd5b8035906020019184600183028401116401000000008311171561013f57600080fd5b91908080601f016020809104026020016040519081016040528093929190818152602001838380828437600081840152601f19601f8201169050808301925050505050505091929192908035906020019092919080359060200190929190803560ff16906020019092919050505061039e565b005b6101e0600480360360208110156101ca57600080fd5b81019080803590602001909291905050506107be565b604051808881526020018781526020018681526020018060200185815260200184815260200183600481111561021257fe5b60ff168152602001828103825286818151815260200191508051906020019080838360005b83811015610252578082015181840152602081019050610237565b50505050905090810190601f16801561027f5780820380516001836020036101000a031916815260200191505b509850505050505050505060405180910390f35b6102bf600480360360208110156102a957600080fd5b81019080803590602001909291905050506108a5565b60405180888152602001878152602001868152602001806020018581526020018481526020018360048111156102f157fe5b60ff168152602001828103825286818151815260200191508051906020019080838360005b83811015610331578082015181840152602081019050610316565b50505050905090810190601f16801561035e5780820380516001836020036101000a031916815260200191505b509850505050505050505060405180910390f35b60015481565b600260009054906101000a900473ffffffffffffffffffffffffffffffffffffffff1681565b6000851180156104505750600260009054906101000a900473ffffffffffffffffffffffffffffffffffffffff1673ffffffffffffffffffffffffffffffffffffffff166368433a3a6040518163ffffffff1660e01b815260040160206040518083038186803b15801561041157600080fd5b505afa158015610425573d6000803e3d6000fd5b505050506040513d602081101561043b57600080fd5b81019080805190602001909291905050508511155b6104c2576040517f08c379a00000000000000000000000000000000000000000000000000000000081526004018080602001828103825260128152602001807f496e76616c69642073747564656e74204944000000000000000000000000000081525060200191505060405180910390fd5b600082101580156104d4575060648211155b610546576040517f08c379a00000000000000000000000000000000000000000000000000000000081526004018080602001828103825260198152602001807f496e76616c69642061766572616765206f6274656e74696f6e0000000000000081525060200191505060405180910390fd5b60008160ff161015801561056b575060048081111561056157fe5b60ff168160ff1611155b6105dd576040517f08c379a00000000000000000000000000000000000000000000000000000000081526004018080602001828103825260178152602001807f496e76616c6964206469706c6f6d61206d656e74696f6e00000000000000000081525060200191505060405180910390fd5b6001600081548092919060010191905055506040518060e0016040528060015481526020018781526020018681526020018581526020018481526020018381526020018260ff16600481111561062f57fe5b600481111561063a57fe5b8152506000806001548152602001908152602001600020600082015181600001556020820151816001015560408201518160020155606082015181600301908051906020019061068b929190610a9c565b506080820151816004015560a0820151816005015560c08201518160060160006101000a81548160ff021916908360048111156106c457fe5b02179055509050507f3a8cb33e69636c58c3b4c7e7b3824bf1b643b73f10af8f14d539631b09629a4760015487878787878760ff16600481111561070457fe5b604051808881526020018781526020018681526020018060200185815260200184815260200183600481111561073657fe5b60ff168152602001828103825286818151815260200191508051906020019080838360005b8381101561077657808201518184015260208101905061075b565b50505050905090810190601f1680156107a35780820380516001836020036101000a031916815260200191505b509850505050505050505060405180910390a1505050505050565b6000602052806000526040600020600091509050806000015490806001015490806002015490806003018054600181600116156101000203166002900480601f01602080910402602001604051908101604052809291908181526020018280546001816001161561010002031660029004801561087c5780601f106108515761010080835404028352916020019161087c565b820191906000526020600020905b81548152906001019060200180831161085f57829003601f168201915b5050505050908060040154908060050154908060060160009054906101000a900460ff16905087565b60008060006060600080600080881180156108c257506001548811155b610934576040517f08c379a00000000000000000000000000000000000000000000000000000000081526004018080602001828103825260118152602001807f496e76616c69642064656772656520494400000000000000000000000000000081525060200191505060405180910390fd5b61093c610b1c565b6000808a81526020019081526020016000206040518060e0016040529081600082015481526020016001820154815260200160028201548152602001600382018054600181600116156101000203166002900480601f016020809104026020016040519081016040528092919081815260200182805460018160011615610100020316600290048015610a105780601f106109e557610100808354040283529160200191610a10565b820191906000526020600020905b8154815290600101906020018083116109f357829003601f168201915b5050505050815260200160048201548152602001600582015481526020016006820160009054906101000a900460ff166004811115610a4b57fe5b6004811115610a5657fe5b815250509050806000015181602001518260400151836060015184608001518560a001518660c00151839350975097509750975097509750975050919395979092949650565b828054600181600116156101000203166002900490600052602060002090601f016020900481019282601f10610add57805160ff1916838001178555610b0b565b82800160010185558215610b0b579182015b82811115610b0a578251825591602001919060010190610aef565b5b509050610b189190610b64565b5090565b6040518060e0016040528060008152602001600081526020016000815260200160608152602001600081526020016000815260200160006004811115610b5e57fe5b81525090565b610b8691905b80821115610b82576000816000905550600101610b6a565b5090565b9056fea265627a7a72315820fbab2c30c61cd2af2c1b8ca831953744009691423ce853e49835a2776a2e558e64736f6c63430005100032",
  "source": "// SPDX-License-Identifier: MIT\npragma solidity >=0.4.22 <0.9.0;\n\nimport \"./StudentContract.sol\"; // Import the StudentContract\n\ncontract DegreeContract {\n    // Enum to represent diploma mentions\n    enum DiplomaMention { Pass, Fair, Good, VeryGood, Excellent }\n\n    // Struct to represent a degree\n    struct Degree {\n        uint256 degreeId;\n        uint256 matricule; // Matricule field added\n        uint256 studentId; // Associated student ID\n        string degreeName;\n        uint256 completionYear;\n        uint256 averageObtention;\n        DiplomaMention diplomaMention;\n    }\n\n    // Mapping to store degrees using their ID as the key\n    mapping(uint256 => Degree) public degrees;\n\n    // Counter to keep track of the number of degrees\n    uint256 public degreesCount;\n\n    // Event emitted when a new degree is added\n    event DegreeAdded(uint256 degreeId, uint256 matricule, uint256 studentId, string degreeName, uint256 completionYear, uint256 averageObtention, DiplomaMention diplomaMention);\n\n    // Reference to the StudentContract\n    StudentContract public studentContract;\n\n    // Constructor to set the address of the StudentContract\n    constructor(address _studentContractAddress) public {\n        studentContract = StudentContract(_studentContractAddress);\n    }\n\n    // Function to add a new degree\n    function addDegree(uint256 _matricule, uint256 _studentId, string memory _degreeName, uint256 _completionYear, uint256 _averageObtention, uint8 _diplomaMention) public {\n        require(_studentId > 0 && _studentId <= studentContract.studentsCount(), \"Invalid student ID\");\n        require(_averageObtention >= 0 && _averageObtention <= 100, \"Invalid average obtention\");\n        require(_diplomaMention >= 0 && uint8(_diplomaMention) <= uint8(DiplomaMention.Excellent), \"Invalid diploma mention\");\n\n        degreesCount++;\n        degrees[degreesCount] = Degree(degreesCount, _matricule, _studentId, _degreeName, _completionYear, _averageObtention, DiplomaMention(_diplomaMention));\n        emit DegreeAdded(degreesCount, _matricule, _studentId, _degreeName, _completionYear, _averageObtention, DiplomaMention(_diplomaMention));\n    }\n\n    // Function to get degree details by ID\n    function getDegree(uint256 _degreeId) public view returns (uint256, uint256, uint256, string memory, uint256, uint256, DiplomaMention) {\n        require(_degreeId > 0 && _degreeId <= degreesCount, \"Invalid degree ID\");\n        Degree memory degree = degrees[_degreeId];\n        return (degree.degreeId, degree.matricule, degree.studentId, degree.degreeName, degree.completionYear, degree.averageObtention, degree.diplomaMention);\n    }\n}\n",
  "sourcePath": "C:\\Users\\DELL 7390\\Downloads\\blockchainProject\\blockchainProject\\contracts\\DegreeContract.sol",
  "compiler": {
    "name": "solc",
    "version": "0.5.16+commit.9c3226ce.Emscripten.clang"
  },
  "schemaVersion": "3.4.16",
  "updatedAt": "2023-12-03T15:37:44.631Z",
  "networkType": "ethereum",
  "devdoc": {
    "methods": {}
  },
  "userdoc": {
    "methods": {}
  }
}