{
  "contractName": "StudentContract",
  "abi": [
    {
      "anonymous": false,
      "inputs": [
        {
          "indexed": false,
          "internalType": "uint256",
          "name": "id",
          "type": "uint256"
        },
        {
          "indexed": false,
          "internalType": "uint256",
          "name": "value1",
          "type": "uint256"
        },
        {
          "indexed": false,
          "internalType": "string",
          "name": "entityType",
          "type": "string"
        },
        {
          "indexed": false,
          "internalType": "string",
          "name": "name",
          "type": "string"
        },
        {
          "indexed": false,
          "internalType": "uint256",
          "name": "value2",
          "type": "uint256"
        },
        {
          "indexed": false,
          "internalType": "string",
          "name": "value3",
          "type": "string"
        }
      ],
      "name": "EntityAdded",
      "type": "event"
    },
    {
      "constant": true,
      "inputs": [
        {
          "internalType": "uint256",
          "name": "",
          "type": "uint256"
        }
      ],
      "name": "degrees",
      "outputs": [
        {
          "internalType": "uint256",
          "name": "degreeId",
          "type": "uint256"
        },
        {
          "internalType": "uint256",
          "name": "studentId",
          "type": "uint256"
        },
        {
          "internalType": "string",
          "name": "degreeName",
          "type": "string"
        },
        {
          "internalType": "uint256",
          "name": "yearOfGraduate",
          "type": "uint256"
        },
        {
          "internalType": "string",
          "name": "pathToTheDegree",
          "type": "string"
        },
        {
          "internalType": "enum StudentContract.DiplomaMention",
          "name": "diplomaMention",
          "type": "uint8"
        }
      ],
      "payable": false,
      "stateMutability": "view",
      "type": "function"
    },
    {
      "constant": true,
      "inputs": [],
      "name": "degreesCount",
      "outputs": [
        {
          "internalType": "uint256",
          "name": "",
          "type": "uint256"
        }
      ],
      "payable": false,
      "stateMutability": "view",
      "type": "function"
    },
    {
      "constant": true,
      "inputs": [
        {
          "internalType": "uint256",
          "name": "",
          "type": "uint256"
        }
      ],
      "name": "students",
      "outputs": [
        {
          "internalType": "uint256",
          "name": "id",
          "type": "uint256"
        },
        {
          "internalType": "string",
          "name": "cin",
          "type": "string"
        },
        {
          "internalType": "string",
          "name": "name",
          "type": "string"
        },
        {
          "internalType": "uint256",
          "name": "age",
          "type": "uint256"
        }
      ],
      "payable": false,
      "stateMutability": "view",
      "type": "function"
    },
    {
      "constant": true,
      "inputs": [],
      "name": "studentsCount",
      "outputs": [
        {
          "internalType": "uint256",
          "name": "",
          "type": "uint256"
        }
      ],
      "payable": false,
      "stateMutability": "view",
      "type": "function"
    },
    {
      "constant": false,
      "inputs": [
        {
          "internalType": "string",
          "name": "_cin",
          "type": "string"
        },
        {
          "internalType": "string",
          "name": "_name",
          "type": "string"
        },
        {
          "internalType": "uint256",
          "name": "_age",
          "type": "uint256"
        }
      ],
      "name": "addStudent",
      "outputs": [],
      "payable": false,
      "stateMutability": "nonpayable",
      "type": "function"
    },
    {
      "constant": false,
      "inputs": [
        {
          "internalType": "uint256",
          "name": "_studentId",
          "type": "uint256"
        },
        {
          "internalType": "string",
          "name": "_degreeName",
          "type": "string"
        },
        {
          "internalType": "uint256",
          "name": "_yearOfGraduate",
          "type": "uint256"
        },
        {
          "internalType": "string",
          "name": "_pathToTheDegree",
          "type": "string"
        },
        {
          "internalType": "enum StudentContract.DiplomaMention",
          "name": "_diplomaMention",
          "type": "uint8"
        }
      ],
      "name": "addDegree",
      "outputs": [],
      "payable": false,
      "stateMutability": "nonpayable",
      "type": "function"
    },
    {
      "constant": true,
      "inputs": [
        {
          "internalType": "uint256",
          "name": "_id",
          "type": "uint256"
        }
      ],
      "name": "getStudent",
      "outputs": [
        {
          "internalType": "uint256",
          "name": "",
          "type": "uint256"
        },
        {
          "internalType": "string",
          "name": "",
          "type": "string"
        },
        {
          "internalType": "string",
          "name": "",
          "type": "string"
        },
        {
          "internalType": "uint256",
          "name": "",
          "type": "uint256"
        }
      ],
      "payable": false,
      "stateMutability": "view",
      "type": "function"
    },
    {
      "constant": true,
      "inputs": [
        {
          "internalType": "uint256",
          "name": "_id",
          "type": "uint256"
        }
      ],
      "name": "getDegree",
      "outputs": [
        {
          "internalType": "uint256",
          "name": "",
          "type": "uint256"
        },
        {
          "internalType": "uint256",
          "name": "",
          "type": "uint256"
        },
        {
          "internalType": "string",
          "name": "",
          "type": "string"
        },
        {
          "internalType": "uint256",
          "name": "",
          "type": "uint256"
        },
        {
          "internalType": "string",
          "name": "",
          "type": "string"
        },
        {
          "internalType": "enum StudentContract.DiplomaMention",
          "name": "",
          "type": "uint8"
        }
      ],
      "payable": false,
      "stateMutability": "view",
      "type": "function"
    },
    {
      "constant": true,
      "inputs": [],
      "name": "getStudentsCount",
      "outputs": [
        {
          "internalType": "uint256",
          "name": "",
          "type": "uint256"
        }
      ],
      "payable": false,
      "stateMutability": "view",
      "type": "function"
    },
    {
      "constant": true,
      "inputs": [],
      "name": "getDegreesCount",
      "outputs": [
        {
          "internalType": "uint256",
          "name": "",
          "type": "uint256"
        }
      ],
      "payable": false,
      "stateMutability": "view",
      "type": "function"
    }
  ],
  "bytecode": "0x608060405234801561001057600080fd5b506114a9806100206000396000f3fe608060405234801561001057600080fd5b506004361061009e5760003560e01c806381f1c3bc1161006657806381f1c3bc146101635780639828cd15146101985780639cc8f139146101b6578063d78cc5ca146101d2578063f7928fb3146101ee5761009e565b806302966f51146100a357806306ead22e146100c15780632e8a0c85146100f4578063642f91631461011257806368433a3a14610145575b600080fd5b6100ab610223565b6040516100b89190611099565b60405180910390f35b6100db60048036036100d69190810190610dd0565b610229565b6040516100eb9493929190611179565b60405180910390f35b6100fc610389565b6040516101099190611099565b60405180910390f35b61012c60048036036101279190810190610dd0565b610393565b60405161013c9493929190611126565b60405180910390f35b61014d610593565b60405161015a9190611099565b60405180910390f35b61017d60048036036101789190810190610dd0565b610599565b60405161018f9695949392919061123b565b60405180910390f35b6101a0610712565b6040516101ad9190611099565b60405180910390f35b6101d060048036036101cb9190810190610d51565b61071c565b005b6101ec60048036036101e79190810190610df9565b6107fb565b005b61020860048036036102039190810190610dd0565b610979565b60405161021a969594939291906111cc565b60405180910390f35b60035481565b6000602052806000526040600020600091509050806000015490806001018054600181600116156101000203166002900480601f0160208091040260200160405190810160405280929190818152602001828054600181600116156101000203166002900480156102db5780601f106102b0576101008083540402835291602001916102db565b820191906000526020600020905b8154815290600101906020018083116102be57829003601f168201915b505050505090806002018054600181600116156101000203166002900480601f0160208091040260200160405190810160405280929190818152602001828054600181600116156101000203166002900480156103795780601f1061034e57610100808354040283529160200191610379565b820191906000526020600020905b81548152906001019060200180831161035c57829003601f168201915b5050505050908060030154905084565b6000600354905090565b6000606080600080851180156103ab57506002548511155b6103ea576040517f08c379a00000000000000000000000000000000000000000000000000000000081526004016103e190611059565b60405180910390fd5b6103f2610bc5565b60008087815260200190815260200160002060405180608001604052908160008201548152602001600182018054600181600116156101000203166002900480601f0160208091040260200160405190810160405280929190818152602001828054600181600116156101000203166002900480156104b25780601f10610487576101008083540402835291602001916104b2565b820191906000526020600020905b81548152906001019060200180831161049557829003601f168201915b50505050508152602001600282018054600181600116156101000203166002900480601f0160208091040260200160405190810160405280929190818152602001828054600181600116156101000203166002900480156105545780601f1061052957610100808354040283529160200191610554565b820191906000526020600020905b81548152906001019060200180831161053757829003601f168201915b50505050508152602001600382015481525050905080600001518160200151826040015183606001518292508191509450945094509450509193509193565b60025481565b6001602052806000526040600020600091509050806000015490806001015490806002018054600181600116156101000203166002900480601f0160208091040260200160405190810160405280929190818152602001828054600181600116156101000203166002900480156106515780601f1061062657610100808354040283529160200191610651565b820191906000526020600020905b81548152906001019060200180831161063457829003601f168201915b505050505090806003015490806004018054600181600116156101000203166002900480601f0160208091040260200160405190810160405280929190818152602001828054600181600116156101000203166002900480156106f55780601f106106ca576101008083540402835291602001916106f5565b820191906000526020600020905b8154815290600101906020018083116106d857829003601f168201915b5050505050908060050160009054906101000a900460ff16905086565b6000600254905090565b6002600081548092919060010191905055506040518060800160405280600254815260200184815260200183815260200182815250600080600254815260200190815260200160002060008201518160000155602082015181600101908051906020019061078b929190610bed565b5060408201518160020190805190602001906107a8929190610bed565b50606082015181600301559050507f7fa1876c364d6ced29ea779d5906e684f005d43e613c8ad368e512b0ba78b54d600254600084846040516107ee94939291906110b4565b60405180910390a1505050565b60008511801561080d57506002548511155b61084c576040517f08c379a000000000000000000000000000000000000000000000000000000000815260040161084390611059565b60405180910390fd5b6003600081548092919060010191905055506040518060c00160405280600354815260200186815260200185815260200184815260200183815260200182600481111561089557fe5b815250600160006003548152602001908152602001600020600082015181600001556020820151816001015560408201518160020190805190602001906108dd929190610bed565b50606082015181600301556080820151816004019080519060200190610904929190610bed565b5060a08201518160050160006101000a81548160ff0219169083600481111561092957fe5b02179055509050507f7fa1876c364d6ced29ea779d5906e684f005d43e613c8ad368e512b0ba78b54d6003548686868660405161096a9594939291906112aa565b60405180910390a15050505050565b6000806060600060606000808711801561099557506003548711155b6109d4576040517f08c379a00000000000000000000000000000000000000000000000000000000081526004016109cb90611079565b60405180910390fd5b6109dc610c6d565b600160008981526020019081526020016000206040518060c00160405290816000820154815260200160018201548152602001600282018054600181600116156101000203166002900480601f016020809104026020016040519081016040528092919081815260200182805460018160011615610100020316600290048015610aa75780601f10610a7c57610100808354040283529160200191610aa7565b820191906000526020600020905b815481529060010190602001808311610a8a57829003601f168201915b5050505050815260200160038201548152602001600482018054600181600116156101000203166002900480601f016020809104026020016040519081016040528092919081815260200182805460018160011615610100020316600290048015610b535780601f10610b2857610100808354040283529160200191610b53565b820191906000526020600020905b815481529060010190602001808311610b3657829003601f168201915b505050505081526020016005820160009054906101000a900460ff166004811115610b7a57fe5b6004811115610b8557fe5b815250509050806000015181602001518260400151836060015184608001518560a001518393508191509650965096509650965096505091939550919395565b6040518060800160405280600081526020016060815260200160608152602001600081525090565b828054600181600116156101000203166002900490600052602060002090601f016020900481019282601f10610c2e57805160ff1916838001178555610c5c565b82800160010185558215610c5c579182015b82811115610c5b578251825591602001919060010190610c40565b5b509050610c699190610cae565b5090565b6040518060c00160405280600081526020016000815260200160608152602001600081526020016060815260200160006004811115610ca857fe5b81525090565b610cd091905b80821115610ccc576000816000905550600101610cb4565b5090565b90565b600081359050610ce28161143f565b92915050565b600082601f830112610cf957600080fd5b8135610d0c610d078261134b565b61131e565b91508082526020830160208301858383011115610d2857600080fd5b610d338382846113df565b50505092915050565b600081359050610d4b8161144f565b92915050565b600080600060608486031215610d6657600080fd5b600084013567ffffffffffffffff811115610d8057600080fd5b610d8c86828701610ce8565b935050602084013567ffffffffffffffff811115610da957600080fd5b610db586828701610ce8565b9250506040610dc686828701610d3c565b9150509250925092565b600060208284031215610de257600080fd5b6000610df084828501610d3c565b91505092915050565b600080600080600060a08688031215610e1157600080fd5b6000610e1f88828901610d3c565b955050602086013567ffffffffffffffff811115610e3c57600080fd5b610e4888828901610ce8565b9450506040610e5988828901610d3c565b935050606086013567ffffffffffffffff811115610e7657600080fd5b610e8288828901610ce8565b9250506080610e9388828901610cd3565b9150509295509295909350565b610ea9816113bb565b82525050565b610eb8816113cd565b82525050565b6000610ec982611382565b610ed3818561138d565b9350610ee38185602086016113ee565b610eec81611421565b840191505092915050565b6000610f0282611377565b610f0c818561138d565b9350610f1c8185602086016113ee565b610f2581611421565b840191505092915050565b6000610f3d60068361138d565b91507f44656772656500000000000000000000000000000000000000000000000000006000830152602082019050919050565b6000610f7d60128361138d565b91507f496e76616c69642073747564656e7420494400000000000000000000000000006000830152602082019050919050565b6000610fbd60008361138d565b9150600082019050919050565b6000610fd760078361138d565b91507f53747564656e74000000000000000000000000000000000000000000000000006000830152602082019050919050565b600061101760118361138d565b91507f496e76616c6964206465677265652049440000000000000000000000000000006000830152602082019050919050565b611053816113b1565b82525050565b6000602082019050818103600083015261107281610f70565b9050919050565b600060208201905081810360008301526110928161100a565b9050919050565b60006020820190506110ae600083018461104a565b92915050565b600060c0820190506110c9600083018761104a565b6110d66020830186610eaf565b81810360408301526110e781610fca565b905081810360608301526110fb8185610ebe565b905061110a608083018461104a565b81810360a083015261111b81610fb0565b905095945050505050565b600060808201905061113b600083018761104a565b818103602083015261114d8186610ebe565b905081810360408301526111618185610ebe565b9050611170606083018461104a565b95945050505050565b600060808201905061118e600083018761104a565b81810360208301526111a08186610ef7565b905081810360408301526111b48185610ef7565b90506111c3606083018461104a565b95945050505050565b600060c0820190506111e1600083018961104a565b6111ee602083018861104a565b81810360408301526112008187610ebe565b905061120f606083018661104a565b81810360808301526112218185610ebe565b905061123060a0830184610ea0565b979650505050505050565b600060c082019050611250600083018961104a565b61125d602083018861104a565b818103604083015261126f8187610ef7565b905061127e606083018661104a565b81810360808301526112908185610ef7565b905061129f60a0830184610ea0565b979650505050505050565b600060c0820190506112bf600083018861104a565b6112cc602083018761104a565b81810360408301526112dd81610f30565b905081810360608301526112f18186610ebe565b9050611300608083018561104a565b81810360a08301526113128184610ebe565b90509695505050505050565b6000604051905081810181811067ffffffffffffffff8211171561134157600080fd5b8060405250919050565b600067ffffffffffffffff82111561136257600080fd5b601f19601f8301169050602081019050919050565b600081519050919050565b600081519050919050565b600082825260208201905092915050565b60008190506113ac82611432565b919050565b6000819050919050565b60006113c68261139e565b9050919050565b60006113d8826113b1565b9050919050565b82818337600083830152505050565b60005b8381101561140c5780820151818401526020810190506113f1565b8381111561141b576000848401525b50505050565b6000601f19601f8301169050919050565b6005811061143c57fe5b50565b6005811061144c57600080fd5b50565b611458816113b1565b811461146357600080fd5b5056fea365627a7a72315820465e6bae83014e7d165e89885ae960f8ff30f2a201c173bdf223e756d19b9e7b6c6578706572696d656e74616cf564736f6c63430005100040",
  "source": "// SPDX-License-Identifier: MIT\npragma solidity >=0.4.22 <0.9.0;\npragma experimental ABIEncoderV2;\n\ncontract StudentContract {\n   \n    enum DiplomaMention { Pass, Fair, Good, VeryGood, Excellent }\n\n    struct Degree {\n        uint256 degreeId;\n        uint256 studentId; \n        string degreeName;\n        uint256 yearOfGraduate;\n        string pathToTheDegree;\n        DiplomaMention diplomaMention;\n    }\n\n    struct Student {\n        uint256 id;\n        string cin;\n        string name;\n        uint256 age;\n    }\n\n    mapping(uint256 => Student) public students;\n    mapping(uint256 => Degree) public degrees;\n    uint256 public studentsCount;\n    uint256 public degreesCount;\n\n    event EntityAdded(uint256 id,uint256 value1, string entityType, string name, uint256 value2, string value3);\n\n    function addStudent(string memory _cin, string memory _name, uint256 _age) public {\n        studentsCount++;\n        students[studentsCount] = Student(studentsCount, _cin, _name, _age);\n        emit EntityAdded(studentsCount, 0 , \"Student\", _name, _age, \"\");\n    }\n\n  function addDegree(\n    uint256 _studentId,\n    string memory _degreeName,\n    uint256 _yearOfGraduate,\n    string memory _pathToTheDegree,\n    DiplomaMention _diplomaMention\n) public {\n    require(_studentId > 0 && _studentId <= studentsCount, \"Invalid student ID\");\n    degreesCount++;\n    degrees[degreesCount] = Degree(degreesCount, _studentId, _degreeName, _yearOfGraduate, _pathToTheDegree, _diplomaMention);\n    emit EntityAdded(degreesCount, _studentId, \"Degree\", _degreeName, _yearOfGraduate, _pathToTheDegree);\n}\n\n\n    function getStudent(uint256 _id) public view returns (uint256, string memory, string memory, uint256) {\n        require(_id > 0 && _id <= studentsCount, \"Invalid student ID\");\n        Student memory student = students[_id];\n        return (student.id, student.cin, student.name, student.age);\n    }\n\n    function getDegree(uint256 _id) public view returns (uint256, uint256, string memory, uint256, string memory, DiplomaMention) {\n        require(_id > 0 && _id <= degreesCount, \"Invalid degree ID\");\n        Degree memory degree = degrees[_id];\n        return (degree.degreeId, degree.studentId, degree.degreeName, degree.yearOfGraduate, degree.pathToTheDegree, degree.diplomaMention);\n    }\n\n    function getStudentsCount() public view returns (uint256) {\n        return studentsCount;\n    }\n\n    function getDegreesCount() public view returns (uint256) {\n        return degreesCount;\n    }\n}\n",
  "sourcePath": "C:\\Users\\DELL 7390\\Downloads\\blockchainProject\\blockchainProject\\contracts\\StudentContract.sol",
  "compiler": {
    "name": "solc",
    "version": "0.5.16+commit.9c3226ce.Emscripten.clang"
  },
  "schemaVersion": "3.4.16",
  "updatedAt": "2023-12-03T21:26:20.253Z",
  "networkType": "ethereum",
  "devdoc": {
    "methods": {}
  },
  "userdoc": {
    "methods": {}
  }
}