{
  "contractName": "DegreeContract",
  "abi": [
    {
      "constant": true,
      "inputs": [],
      "name": "degreesCount",
      "outputs": [
        {
          "name": "",
          "type": "uint256"
        }
      ],
      "payable": false,
      "stateMutability": "view",
      "type": "function"
    },
    {
      "constant": true,
      "inputs": [],
      "name": "studentContract",
      "outputs": [
        {
          "name": "",
          "type": "address"
        }
      ],
      "payable": false,
      "stateMutability": "view",
      "type": "function"
    },
    {
      "constant": true,
      "inputs": [
        {
          "name": "",
          "type": "uint256"
        }
      ],
      "name": "degrees",
      "outputs": [
        {
          "name": "degreeId",
          "type": "uint256"
        },
        {
          "name": "studentId",
          "type": "uint256"
        },
        {
          "name": "degreeName",
          "type": "string"
        },
        {
          "name": "completionYear",
          "type": "uint256"
        },
        {
          "name": "averageObtention",
          "type": "uint256"
        },
        {
          "name": "diplomaMention",
          "type": "uint8"
        }
      ],
      "payable": false,
      "stateMutability": "view",
      "type": "function"
    },
    {
      "inputs": [
        {
          "name": "_studentContractAddress",
          "type": "address"
        }
      ],
      "payable": false,
      "stateMutability": "nonpayable",
      "type": "constructor"
    },
    {
      "anonymous": false,
      "inputs": [
        {
          "indexed": false,
          "name": "degreeId",
          "type": "uint256"
        },
        {
          "indexed": false,
          "name": "studentId",
          "type": "uint256"
        },
        {
          "indexed": false,
          "name": "degreeName",
          "type": "string"
        },
        {
          "indexed": false,
          "name": "completionYear",
          "type": "uint256"
        },
        {
          "indexed": false,
          "name": "averageObtention",
          "type": "uint256"
        },
        {
          "indexed": false,
          "name": "diplomaMention",
          "type": "uint8"
        }
      ],
      "name": "DegreeAdded",
      "type": "event"
    },
    {
      "constant": false,
      "inputs": [
        {
          "name": "_studentId",
          "type": "uint256"
        },
        {
          "name": "_degreeName",
          "type": "string"
        },
        {
          "name": "_completionYear",
          "type": "uint256"
        },
        {
          "name": "_averageObtention",
          "type": "uint256"
        },
        {
          "name": "_diplomaMention",
          "type": "uint8"
        }
      ],
      "name": "addDegree",
      "outputs": [],
      "payable": false,
      "stateMutability": "nonpayable",
      "type": "function"
    },
    {
      "constant": true,
      "inputs": [
        {
          "name": "_degreeId",
          "type": "uint256"
        }
      ],
      "name": "getDegree",
      "outputs": [
        {
          "name": "",
          "type": "uint256"
        },
        {
          "name": "",
          "type": "uint256"
        },
        {
          "name": "",
          "type": "string"
        },
        {
          "name": "",
          "type": "uint256"
        },
        {
          "name": "",
          "type": "uint256"
        },
        {
          "name": "",
          "type": "uint8"
        }
      ],
      "payable": false,
      "stateMutability": "view",
      "type": "function"
    }
  ],
  "bytecode": "0x608060405234801561001057600080fd5b50604051602080610c728339810180604052602081101561003057600080fd5b810190808051906020019092919050505080600260006101000a81548173ffffffffffffffffffffffffffffffffffffffff021916908373ffffffffffffffffffffffffffffffffffffffff16021790555050610be0806100926000396000f3fe60806040526004361061006d576000357c0100000000000000000000000000000000000000000000000000000000900463ffffffff16806302966f511461007257806306ae2f9b1461009d5780630c571a091461019057806381f1c3bc146101e7578063f7928fb3146102cc575b600080fd5b34801561007e57600080fd5b506100876103b1565b6040518082815260200191505060405180910390f35b3480156100a957600080fd5b5061018e600480360360a08110156100c057600080fd5b8101908080359060200190929190803590602001906401000000008111156100e757600080fd5b8201836020820111156100f957600080fd5b8035906020019184600183028401116401000000008311171561011b57600080fd5b91908080601f016020809104026020016040519081016040528093929190818152602001838380828437600081840152601f19601f8201169050808301925050505050505091929192908035906020019092919080359060200190929190803560ff1690602001909291905050506103b7565b005b34801561019c57600080fd5b506101a56107e1565b604051808273ffffffffffffffffffffffffffffffffffffffff1673ffffffffffffffffffffffffffffffffffffffff16815260200191505060405180910390f35b3480156101f357600080fd5b506102206004803603602081101561020a57600080fd5b8101908080359060200190929190505050610807565b604051808781526020018681526020018060200185815260200184815260200183600481111561024c57fe5b60ff168152602001828103825286818151815260200191508051906020019080838360005b8381101561028c578082015181840152602081019050610271565b50505050905090810190601f1680156102b95780820380516001836020036101000a031916815260200191505b5097505050505050505060405180910390f35b3480156102d857600080fd5b50610305600480360360208110156102ef57600080fd5b81019080803590602001909291905050506108e8565b604051808781526020018681526020018060200185815260200184815260200183600481111561033157fe5b60ff168152602001828103825286818151815260200191508051906020019080838360005b83811015610371578082015181840152602081019050610356565b50505050905090810190601f16801561039e5780820380516001836020036101000a031916815260200191505b5097505050505050505060405180910390f35b60015481565b6000851180156104855750600260009054906101000a900473ffffffffffffffffffffffffffffffffffffffff1673ffffffffffffffffffffffffffffffffffffffff166368433a3a6040518163ffffffff167c010000000000000000000000000000000000000000000000000000000002815260040160206040518083038186803b15801561044657600080fd5b505afa15801561045a573d6000803e3d6000fd5b505050506040513d602081101561047057600080fd5b81019080805190602001909291905050508511155b15156104f9576040517f08c379a00000000000000000000000000000000000000000000000000000000081526004018080602001828103825260128152602001807f496e76616c69642073747564656e74204944000000000000000000000000000081525060200191505060405180910390fd5b6000821015801561050b575060648211155b151561057f576040517f08c379a00000000000000000000000000000000000000000000000000000000081526004018080602001828103825260198152602001807f496e76616c69642061766572616765206f6274656e74696f6e0000000000000081525060200191505060405180910390fd5b60008160ff16101580156105a4575060048081111561059a57fe5b60ff168160ff1611155b1515610618576040517f08c379a00000000000000000000000000000000000000000000000000000000081526004018080602001828103825260178152602001807f496e76616c6964206469706c6f6d61206d656e74696f6e00000000000000000081525060200191505060405180910390fd5b60016000815480929190600101919050555060c06040519081016040528060015481526020018681526020018581526020018481526020018381526020018260ff16600481111561066557fe5b600481111561067057fe5b8152506000806001548152602001908152602001600020600082015181600001556020820151816001015560408201518160020190805190602001906106b7929190610acd565b50606082015181600301556080820151816004015560a08201518160050160006101000a81548160ff021916908360048111156106f057fe5b02179055509050507f0917da52a78175b3710e88509f11b01146d9c2b7597a8ce2bc89c69b89529d2c600154868686868660ff16600481111561072f57fe5b604051808781526020018681526020018060200185815260200184815260200183600481111561075b57fe5b60ff168152602001828103825286818151815260200191508051906020019080838360005b8381101561079b578082015181840152602081019050610780565b50505050905090810190601f1680156107c85780820380516001836020036101000a031916815260200191505b5097505050505050505060405180910390a15050505050565b600260009054906101000a900473ffffffffffffffffffffffffffffffffffffffff1681565b6000602052806000526040600020600091509050806000015490806001015490806002018054600181600116156101000203166002900480601f0160208091040260200160405190810160405280929190818152602001828054600181600116156101000203166002900480156108bf5780601f10610894576101008083540402835291602001916108bf565b820191906000526020600020905b8154815290600101906020018083116108a257829003601f168201915b5050505050908060030154908060040154908060050160009054906101000a900460ff16905086565b60008060606000806000808711801561090357506001548711155b1515610977576040517f08c379a00000000000000000000000000000000000000000000000000000000081526004018080602001828103825260118152602001807f496e76616c69642064656772656520494400000000000000000000000000000081525060200191505060405180910390fd5b61097f610b4d565b60008089815260200190815260200160002060c060405190810160405290816000820154815260200160018201548152602001600282018054600181600116156101000203166002900480601f016020809104026020016040519081016040528092919081815260200182805460018160011615610100020316600290048015610a4a5780601f10610a1f57610100808354040283529160200191610a4a565b820191906000526020600020905b815481529060010190602001808311610a2d57829003601f168201915b5050505050815260200160038201548152602001600482015481526020016005820160009054906101000a900460ff166004811115610a8557fe5b6004811115610a9057fe5b815250509050806000015181602001518260400151836060015184608001518560a001518393509650965096509650965096505091939550919395565b828054600181600116156101000203166002900490600052602060002090601f016020900481019282601f10610b0e57805160ff1916838001178555610b3c565b82800160010185558215610b3c579182015b82811115610b3b578251825591602001919060010190610b20565b5b509050610b499190610b8f565b5090565b60c060405190810160405280600081526020016000815260200160608152602001600081526020016000815260200160006004811115610b8957fe5b81525090565b610bb191905b80821115610bad576000816000905550600101610b95565b5090565b9056fea165627a7a7230582072d6026d869bc8ed2386b3788f1f04686d637a827f2ec0f06f435bcb306a5ca90029",
  "source": "// SPDX-License-Identifier: MIT\npragma solidity >=0.4.22 <0.9.0;\n\nimport \"./StudentContract.sol\"; // Import the StudentContract\n\ncontract DegreeContract {\n    // Enum to represent diploma mentions\n    enum DiplomaMention { Pass, Fair, Good, VeryGood, Excellent }\n\n    // Struct to represent a degree\n    struct Degree {\n        uint256 degreeId;\n        uint256 studentId; // Associated student ID\n        string degreeName;\n        uint256 completionYear;\n        uint256 averageObtention;\n        DiplomaMention diplomaMention;\n    }\n\n    // Mapping to store degrees using their ID as the key\n    mapping(uint256 => Degree) public degrees;\n\n    // Counter to keep track of the number of degrees\n    uint256 public degreesCount;\n\n    // Event emitted when a new degree is added\n    event DegreeAdded(uint256 degreeId, uint256 studentId, string degreeName, uint256 completionYear, uint256 averageObtention, DiplomaMention diplomaMention);\n\n    // Reference to the StudentContract\n    StudentContract public studentContract;\n\n    // Constructor to set the address of the StudentContract\n    constructor(address _studentContractAddress) public {\n        studentContract = StudentContract(_studentContractAddress);\n    }\n\n    // Function to add a new degree\n    function addDegree(uint256 _studentId, string memory _degreeName, uint256 _completionYear, uint256 _averageObtention, uint8 _diplomaMention) public {\n        require(_studentId > 0 && _studentId <= studentContract.studentsCount(), \"Invalid student ID\");\n        require(_averageObtention >= 0 && _averageObtention <= 100, \"Invalid average obtention\");\n        require(_diplomaMention >= 0 && uint8(_diplomaMention) <= uint8(DiplomaMention.Excellent), \"Invalid diploma mention\");\n\n        degreesCount++;\n        degrees[degreesCount] = Degree(degreesCount, _studentId, _degreeName, _completionYear, _averageObtention, DiplomaMention(_diplomaMention));\n        emit DegreeAdded(degreesCount, _studentId, _degreeName, _completionYear, _averageObtention, DiplomaMention(_diplomaMention));\n    }\n\n    // Function to get degree details by ID\n    function getDegree(uint256 _degreeId) public view returns (uint256, uint256, string memory, uint256, uint256, DiplomaMention) {\n        require(_degreeId > 0 && _degreeId <= degreesCount, \"Invalid degree ID\");\n        Degree memory degree = degrees[_degreeId];\n        return (degree.degreeId, degree.studentId, degree.degreeName, degree.completionYear, degree.averageObtention, degree.diplomaMention);\n    }\n}\n",
  "sourcePath": "/home/moustapha/Desktop/blockchainProject/contracts/DegreeContract.sol",
  "compiler": {
    "name": "solc",
    "version": "0.5.0+commit.1d4f565a.Emscripten.clang"
  },
  "schemaVersion": "3.4.16",
  "updatedAt": "2023-11-16T23:17:10.682Z",
  "networkType": "ethereum",
  "devdoc": {
    "methods": {}
  },
  "userdoc": {
    "methods": {}
  }
}