{
  "contractName": "StudentContract",
  "abi": [
    {
      "constant": true,
      "inputs": [
        {
          "name": "",
          "type": "uint256"
        }
      ],
      "name": "students",
      "outputs": [
        {
          "name": "id",
          "type": "uint256"
        },
        {
          "name": "name",
          "type": "string"
        },
        {
          "name": "age",
          "type": "uint256"
        },
        {
          "name": "yearOfGraduate",
          "type": "uint256"
        },
        {
          "name": "pathToTheDegree",
          "type": "string"
        }
      ],
      "payable": false,
      "stateMutability": "view",
      "type": "function"
    },
    {
      "constant": true,
      "inputs": [],
      "name": "studentsCount",
      "outputs": [
        {
          "name": "",
          "type": "uint256"
        }
      ],
      "payable": false,
      "stateMutability": "view",
      "type": "function"
    },
    {
      "anonymous": false,
      "inputs": [
        {
          "indexed": false,
          "name": "id",
          "type": "uint256"
        },
        {
          "indexed": false,
          "name": "name",
          "type": "string"
        },
        {
          "indexed": false,
          "name": "age",
          "type": "uint256"
        },
        {
          "indexed": false,
          "name": "yearOfGraduate",
          "type": "uint256"
        },
        {
          "indexed": false,
          "name": "pathToTheDegree",
          "type": "string"
        }
      ],
      "name": "StudentAdded",
      "type": "event"
    },
    {
      "constant": false,
      "inputs": [
        {
          "name": "_name",
          "type": "string"
        },
        {
          "name": "_age",
          "type": "uint256"
        },
        {
          "name": "_yearOfGraduate",
          "type": "uint256"
        },
        {
          "name": "_pathToTheDegree",
          "type": "string"
        }
      ],
      "name": "addStudent",
      "outputs": [],
      "payable": false,
      "stateMutability": "nonpayable",
      "type": "function"
    },
    {
      "constant": true,
      "inputs": [
        {
          "name": "_id",
          "type": "uint256"
        }
      ],
      "name": "getStudent",
      "outputs": [
        {
          "name": "",
          "type": "uint256"
        },
        {
          "name": "",
          "type": "string"
        },
        {
          "name": "",
          "type": "uint256"
        },
        {
          "name": "",
          "type": "uint256"
        },
        {
          "name": "",
          "type": "string"
        }
      ],
      "payable": false,
      "stateMutability": "view",
      "type": "function"
    }
  ],
  "bytecode": "0x608060405234801561001057600080fd5b50610afc806100206000396000f3fe608060405260043610610062576000357c0100000000000000000000000000000000000000000000000000000000900463ffffffff16806306ead22e14610067578063642f91631461019c57806368433a3a146102d15780639ae52f0f146102fc575b600080fd5b34801561007357600080fd5b506100a06004803603602081101561008a57600080fd5b810190808035906020019092919050505061046f565b604051808681526020018060200185815260200184815260200180602001838103835287818151815260200191508051906020019080838360005b838110156100f65780820151818401526020810190506100db565b50505050905090810190601f1680156101235780820380516001836020036101000a031916815260200191505b50838103825284818151815260200191508051906020019080838360005b8381101561015c578082015181840152602081019050610141565b50505050905090810190601f1680156101895780820380516001836020036101000a031916815260200191505b5097505050505050505060405180910390f35b3480156101a857600080fd5b506101d5600480360360208110156101bf57600080fd5b81019080803590602001909291905050506105d5565b604051808681526020018060200185815260200184815260200180602001838103835287818151815260200191508051906020019080838360005b8381101561022b578082015181840152602081019050610210565b50505050905090810190601f1680156102585780820380516001836020036101000a031916815260200191505b50838103825284818151815260200191508051906020019080838360005b83811015610291578082015181840152602081019050610276565b50505050905090810190601f1680156102be5780820380516001836020036101000a031916815260200191505b5097505050505050505060405180910390f35b3480156102dd57600080fd5b506102e6610821565b6040518082815260200191505060405180910390f35b34801561030857600080fd5b5061046d6004803603608081101561031f57600080fd5b810190808035906020019064010000000081111561033c57600080fd5b82018360208201111561034e57600080fd5b8035906020019184600183028401116401000000008311171561037057600080fd5b91908080601f016020809104026020016040519081016040528093929190818152602001838380828437600081840152601f19601f8201169050808301925050505050505091929192908035906020019092919080359060200190929190803590602001906401000000008111156103e757600080fd5b8201836020820111156103f957600080fd5b8035906020019184600183028401116401000000008311171561041b57600080fd5b91908080601f016020809104026020016040519081016040528093929190818152602001838380828437600081840152601f19601f820116905080830192505050505050509192919290505050610827565b005b6000602052806000526040600020600091509050806000015490806001018054600181600116156101000203166002900480601f0160208091040260200160405190810160405280929190818152602001828054600181600116156101000203166002900480156105215780601f106104f657610100808354040283529160200191610521565b820191906000526020600020905b81548152906001019060200180831161050457829003601f168201915b505050505090806002015490806003015490806004018054600181600116156101000203166002900480601f0160208091040260200160405190810160405280929190818152602001828054600181600116156101000203166002900480156105cb5780601f106105a0576101008083540402835291602001916105cb565b820191906000526020600020905b8154815290600101906020018083116105ae57829003601f168201915b5050505050905085565b6000606060008060606000861180156105f057506001548611155b1515610664576040517f08c379a00000000000000000000000000000000000000000000000000000000081526004018080602001828103825260128152602001807f496e76616c69642073747564656e74204944000000000000000000000000000081525060200191505060405180910390fd5b61066c6109fb565b60008088815260200190815260200160002060a0604051908101604052908160008201548152602001600182018054600181600116156101000203166002900480601f01602080910402602001604051908101604052809291908181526020018280546001816001161561010002031660029004801561072d5780601f106107025761010080835404028352916020019161072d565b820191906000526020600020905b81548152906001019060200180831161071057829003601f168201915b505050505081526020016002820154815260200160038201548152602001600482018054600181600116156101000203166002900480601f0160208091040260200160405190810160405280929190818152602001828054600181600116156101000203166002900480156107e35780601f106107b8576101008083540402835291602001916107e3565b820191906000526020600020905b8154815290600101906020018083116107c657829003601f168201915b505050505081525050905080600001518160200151826040015183606001518460800151839350809050955095509550955095505091939590929450565b60015481565b60016000815480929190600101919050555060a060405190810160405280600154815260200185815260200184815260200183815260200182815250600080600154815260200190815260200160002060008201518160000155602082015181600101908051906020019061089d929190610a2b565b50604082015181600201556060820151816003015560808201518160040190805190602001906108ce929190610a2b565b509050507f1c88c19b8f495132319ebb31df7c5ae80908c6c845e782fde28081254add665a60015485858585604051808681526020018060200185815260200184815260200180602001838103835287818151815260200191508051906020019080838360005b83811015610950578082015181840152602081019050610935565b50505050905090810190601f16801561097d5780820380516001836020036101000a031916815260200191505b50838103825284818151815260200191508051906020019080838360005b838110156109b657808201518184015260208101905061099b565b50505050905090810190601f1680156109e35780820380516001836020036101000a031916815260200191505b5097505050505050505060405180910390a150505050565b60a06040519081016040528060008152602001606081526020016000815260200160008152602001606081525090565b828054600181600116156101000203166002900490600052602060002090601f016020900481019282601f10610a6c57805160ff1916838001178555610a9a565b82800160010185558215610a9a579182015b82811115610a99578251825591602001919060010190610a7e565b5b509050610aa79190610aab565b5090565b610acd91905b80821115610ac9576000816000905550600101610ab1565b5090565b9056fea165627a7a723058200b350d7b0d02c9812a1e3f9e54df04a33b09f03531e0d2bf87cc874c95df9abb0029",
  "source": "// SPDX-License-Identifier: MIT\npragma solidity >=0.4.22 <0.9.0;\n\ncontract StudentContract {\n    // Struct to represent a student\n    struct Student {\n        uint256 id;\n        string name;\n        uint256 age;\n        uint256 yearOfGraduate;\n        string pathToTheDegree;\n    }\n\n    // Mapping to store students using their ID as the key\n    mapping(uint256 => Student) public students;\n\n    // Counter to keep track of the number of students\n    uint256 public studentsCount;\n\n    // Event emitted when a new student is added\n    event StudentAdded(uint256 id, string name, uint256 age, uint256 yearOfGraduate, string pathToTheDegree);\n\n    // Function to add a new student\n    function addStudent(string memory _name, uint256 _age, uint256 _yearOfGraduate, string memory _pathToTheDegree) public {\n        studentsCount++;\n        students[studentsCount] = Student(studentsCount, _name, _age, _yearOfGraduate, _pathToTheDegree);\n        emit StudentAdded(studentsCount, _name, _age, _yearOfGraduate, _pathToTheDegree);\n    }\n\n    // Function to get student details by ID\n    function getStudent(uint256 _id) public view returns (uint256, string memory, uint256, uint256, string memory) {\n        require(_id > 0 && _id <= studentsCount, \"Invalid student ID\");\n        Student memory student = students[_id];\n        return (student.id, student.name, student.age, student.yearOfGraduate, student.pathToTheDegree);\n    }\n}\n",
  "sourcePath": "/home/moustapha/Desktop/blockchainProject/contracts/StudentContract.sol",
  "compiler": {
    "name": "solc",
    "version": "0.5.0+commit.1d4f565a.Emscripten.clang"
  },
  "schemaVersion": "3.4.16",
  "updatedAt": "2023-11-16T23:17:10.547Z",
  "networkType": "ethereum",
  "devdoc": {
    "methods": {}
  },
  "userdoc": {
    "methods": {}
  }
}